{
  "contractName": "VioletToken",
  "abi": [
    {
      "constant": true,
      "inputs": [],
      "name": "totalSupply",
      "outputs": [
        {
          "name": "",
          "type": "uint256"
        }
      ],
      "payable": false,
      "stateMutability": "view",
      "type": "function"
    },
    {
      "inputs": [],
      "payable": false,
      "stateMutability": "nonpayable",
      "type": "constructor"
    }
  ],
  "bytecode": "0x608060405234801561001057600080fd5b50620f4240600081905550609e806100296000396000f300608060405260043610603f576000357c0100000000000000000000000000000000000000000000000000000000900463ffffffff16806318160ddd146044575b600080fd5b348015604f57600080fd5b506056606c565b6040518082815260200191505060405180910390f35b600054815600a165627a7a72305820d0cf129e62817ceca12f3fe426c04ab46947ece3454f55d2d1fd844de1970cbf0029",
  "source": "pragma solidity ^0.4.2;\n\ncontract VioletToken {\n\t// Constructor allows verification through blockchain transaction of totalSupply\n\tuint256 public totalSupply;\n\n\tfunction VioletToken () public {\n\t\ttotalSupply = 1000000;\n\t}\n}",
  "sourcePath": "/root/Ethereum/Violet (VLT)/contracts/VioletToken.sol",
  "compiler": {
    "name": "solc",
    "version": "0.4.26+commit.4563c3fc.Emscripten.clang"
  },
  "schemaVersion": "2.0.3",
  "updatedAt": "2019-12-29T02:10:55.351Z"
}