{
  "contractName": "VioletToken",
  "abi": [
    {
      "constant": true,
      "inputs": [],
      "name": "totalSupply",
      "outputs": [
        {
          "name": "",
          "type": "uint256"
        }
      ],
      "payable": false,
      "stateMutability": "view",
      "type": "function"
    },
    {
      "constant": true,
      "inputs": [
        {
          "name": "",
          "type": "address"
        }
      ],
      "name": "balanceOf",
      "outputs": [
        {
          "name": "",
          "type": "uint256"
        }
      ],
      "payable": false,
      "stateMutability": "view",
      "type": "function"
    },
    {
      "inputs": [
        {
          "name": "_initialSupply",
          "type": "uint256"
        }
      ],
      "payable": false,
      "stateMutability": "nonpayable",
      "type": "constructor"
    }
  ],
  "bytecode": "0x608060405234801561001057600080fd5b5060405160208061015e8339810180604052810190808051906020019092919050505080600081905550506101148061004a6000396000f3006080604052600436106049576000357c0100000000000000000000000000000000000000000000000000000000900463ffffffff16806318160ddd14604e57806370a08231146076575b600080fd5b348015605957600080fd5b50606060ca565b6040518082815260200191505060405180910390f35b348015608157600080fd5b5060b4600480360381019080803573ffffffffffffffffffffffffffffffffffffffff16906020019092919050505060d0565b6040518082815260200191505060405180910390f35b60005481565b600160205280600052604060002060009150905054815600a165627a7a72305820931f883c13f75b3830b8cebee5ca71b3345063f3067d13cbd18ab00b4bbb8bba0029",
  "source": "pragma solidity ^0.4.2;\n\ncontract VioletToken {\n\tuint256 public totalSupply;\n\n\tmapping(address => uint256) public balanceOf;\n\t\n\t// Constructor\n\tfunction VioletToken (uint256 _initialSupply) public {\n\t\ttotalSupply = _initialSupply;\n\t\t// Allocate the initial supply\n\t}\n}",
  "sourcePath": "/root/Ethereum/Violet (VLT)/contracts/VioletToken.sol",
  "compiler": {
    "name": "solc",
    "version": "0.4.26+commit.4563c3fc.Emscripten.clang"
  },
  "schemaVersion": "2.0.3",
  "updatedAt": "2019-12-29T04:40:35.667Z"
}